{"abi":[{"type":"constructor","inputs":[{"name":"_token0","type":"address","internalType":"address"},{"name":"_token1","type":"address","internalType":"address"},{"name":"_mathEngine","type":"address","internalType":"address"},{"name":"_name","type":"string","internalType":"string"},{"name":"_symbol","type":"string","internalType":"string"}],"stateMutability":"nonpayable"},{"type":"function","name":"MATH_ENGINE","inputs":[],"outputs":[{"name":"","type":"address","internalType":"contract IMathematicalEngine"}],"stateMutability":"view"},{"type":"function","name":"MINIMUM_LIQUIDITY","inputs":[],"outputs":[{"name":"","type":"uint256","internalType":"uint256"}],"stateMutability":"view"},{"type":"function","name":"TOKEN0","inputs":[],"outputs":[{"name":"","type":"address","internalType":"contract IERC20"}],"stateMutability":"view"},{"type":"function","name":"TOKEN1","inputs":[],"outputs":[{"name":"","type":"address","internalType":"contract IERC20"}],"stateMutability":"view"},{"type":"function","name":"addLiquidity","inputs":[{"name":"amount0Desired","type":"uint256","internalType":"uint256"},{"name":"amount1Desired","type":"uint256","internalType":"uint256"},{"name":"amount0Min","type":"uint256","internalType":"uint256"},{"name":"amount1Min","type":"uint256","internalType":"uint256"},{"name":"to","type":"address","internalType":"address"}],"outputs":[{"name":"liquidity","type":"uint256","internalType":"uint256"}],"stateMutability":"nonpayable"},{"type":"function","name":"addLiquidityEnhanced","inputs":[{"name":"amount0Desired","type":"uint256","internalType":"uint256"},{"name":"amount1Desired","type":"uint256","internalType":"uint256"},{"name":"amount0Min","type":"uint256","internalType":"uint256"},{"name":"amount1Min","type":"uint256","internalType":"uint256"},{"name":"to","type":"address","internalType":"address"}],"outputs":[{"name":"liquidity","type":"uint256","internalType":"uint256"}],"stateMutability":"nonpayable"},{"type":"function","name":"allowance","inputs":[{"name":"owner","type":"address","internalType":"address"},{"name":"spender","type":"address","internalType":"address"}],"outputs":[{"name":"","type":"uint256","internalType":"uint256"}],"stateMutability":"view"},{"type":"function","name":"approve","inputs":[{"name":"spender","type":"address","internalType":"address"},{"name":"value","type":"uint256","internalType":"uint256"}],"outputs":[{"name":"","type":"bool","internalType":"bool"}],"stateMutability":"nonpayable"},{"type":"function","name":"balanceOf","inputs":[{"name":"account","type":"address","internalType":"address"}],"outputs":[{"name":"","type":"uint256","internalType":"uint256"}],"stateMutability":"view"},{"type":"function","name":"baseFeeRate","inputs":[],"outputs":[{"name":"","type":"uint256","internalType":"uint256"}],"stateMutability":"view"},{"type":"function","name":"calculateImpermanentLoss","inputs":[{"name":"initialPrice","type":"uint256","internalType":"uint256"},{"name":"currentPrice","type":"uint256","internalType":"uint256"}],"outputs":[{"name":"","type":"uint256","internalType":"uint256"}],"stateMutability":"nonpayable"},{"type":"function","name":"decimals","inputs":[],"outputs":[{"name":"","type":"uint8","internalType":"uint8"}],"stateMutability":"view"},{"type":"function","name":"dynamicFeesEnabled","inputs":[],"outputs":[{"name":"","type":"bool","internalType":"bool"}],"stateMutability":"view"},{"type":"function","name":"getAmountOut","inputs":[{"name":"amountIn","type":"uint256","internalType":"uint256"},{"name":"tokenIn","type":"address","internalType":"address"}],"outputs":[{"name":"","type":"uint256","internalType":"uint256"}],"stateMutability":"view"},{"type":"function","name":"getReserves","inputs":[],"outputs":[{"name":"","type":"uint256","internalType":"uint256"},{"name":"","type":"uint256","internalType":"uint256"}],"stateMutability":"view"},{"type":"function","name":"lastVolumeUpdate","inputs":[],"outputs":[{"name":"","type":"uint256","internalType":"uint256"}],"stateMutability":"view"},{"type":"function","name":"name","inputs":[],"outputs":[{"name":"","type":"string","internalType":"string"}],"stateMutability":"view"},{"type":"function","name":"owner","inputs":[],"outputs":[{"name":"","type":"address","internalType":"address"}],"stateMutability":"view"},{"type":"function","name":"priceVolatility","inputs":[],"outputs":[{"name":"","type":"uint256","internalType":"uint256"}],"stateMutability":"view"},{"type":"function","name":"removeLiquidity","inputs":[{"name":"liquidity","type":"uint256","internalType":"uint256"},{"name":"amount0Min","type":"uint256","internalType":"uint256"},{"name":"amount1Min","type":"uint256","internalType":"uint256"},{"name":"to","type":"address","internalType":"address"}],"outputs":[{"name":"amount0","type":"uint256","internalType":"uint256"},{"name":"amount1","type":"uint256","internalType":"uint256"}],"stateMutability":"nonpayable"},{"type":"function","name":"removeLiquidityEnhanced","inputs":[{"name":"liquidity","type":"uint256","internalType":"uint256"},{"name":"amount0Min","type":"uint256","internalType":"uint256"},{"name":"amount1Min","type":"uint256","internalType":"uint256"},{"name":"to","type":"address","internalType":"address"}],"outputs":[{"name":"amount0","type":"uint256","internalType":"uint256"},{"name":"amount1","type":"uint256","internalType":"uint256"}],"stateMutability":"nonpayable"},{"type":"function","name":"renounceOwnership","inputs":[],"outputs":[],"stateMutability":"nonpayable"},{"type":"function","name":"reserve0","inputs":[],"outputs":[{"name":"","type":"uint256","internalType":"uint256"}],"stateMutability":"view"},{"type":"function","name":"reserve1","inputs":[],"outputs":[{"name":"","type":"uint256","internalType":"uint256"}],"stateMutability":"view"},{"type":"function","name":"swap","inputs":[{"name":"tokenIn","type":"address","internalType":"address"},{"name":"amountIn","type":"uint256","internalType":"uint256"},{"name":"amountOutMin","type":"uint256","internalType":"uint256"},{"name":"to","type":"address","internalType":"address"}],"outputs":[{"name":"amountOut","type":"uint256","internalType":"uint256"}],"stateMutability":"nonpayable"},{"type":"function","name":"swapEnhanced","inputs":[{"name":"tokenIn","type":"address","internalType":"address"},{"name":"amountIn","type":"uint256","internalType":"uint256"},{"name":"amountOutMin","type":"uint256","internalType":"uint256"},{"name":"to","type":"address","internalType":"address"}],"outputs":[{"name":"amountOut","type":"uint256","internalType":"uint256"}],"stateMutability":"nonpayable"},{"type":"function","name":"symbol","inputs":[],"outputs":[{"name":"","type":"string","internalType":"string"}],"stateMutability":"view"},{"type":"function","name":"totalSupply","inputs":[],"outputs":[{"name":"","type":"uint256","internalType":"uint256"}],"stateMutability":"view"},{"type":"function","name":"transfer","inputs":[{"name":"to","type":"address","internalType":"address"},{"name":"value","type":"uint256","internalType":"uint256"}],"outputs":[{"name":"","type":"bool","internalType":"bool"}],"stateMutability":"nonpayable"},{"type":"function","name":"transferFrom","inputs":[{"name":"from","type":"address","internalType":"address"},{"name":"to","type":"address","internalType":"address"},{"name":"value","type":"uint256","internalType":"uint256"}],"outputs":[{"name":"","type":"bool","internalType":"bool"}],"stateMutability":"nonpayable"},{"type":"function","name":"transferOwnership","inputs":[{"name":"newOwner","type":"address","internalType":"address"}],"outputs":[],"stateMutability":"nonpayable"},{"type":"function","name":"volume24h","inputs":[],"outputs":[{"name":"","type":"uint256","internalType":"uint256"}],"stateMutability":"view"},{"type":"event","name":"Approval","inputs":[{"name":"owner","type":"address","indexed":true,"internalType":"address"},{"name":"spender","type":"address","indexed":true,"internalType":"address"},{"name":"value","type":"uint256","indexed":false,"internalType":"uint256"}],"anonymous":false},{"type":"event","name":"DynamicFeeUpdated","inputs":[{"name":"newFee","type":"uint256","indexed":false,"internalType":"uint256"}],"anonymous":false},{"type":"event","name":"LiquidityAddedEnhanced","inputs":[{"name":"provider","type":"address","indexed":true,"internalType":"address"},{"name":"amount0","type":"uint256","indexed":false,"internalType":"uint256"},{"name":"amount1","type":"uint256","indexed":false,"internalType":"uint256"},{"name":"liquidity","type":"uint256","indexed":false,"internalType":"uint256"}],"anonymous":false},{"type":"event","name":"LiquidityRemoved","inputs":[{"name":"provider","type":"address","indexed":true,"internalType":"address"},{"name":"amount0","type":"uint256","indexed":false,"internalType":"uint256"},{"name":"amount1","type":"uint256","indexed":false,"internalType":"uint256"},{"name":"liquidity","type":"uint256","indexed":false,"internalType":"uint256"}],"anonymous":false},{"type":"event","name":"OwnershipTransferred","inputs":[{"name":"previousOwner","type":"address","indexed":true,"internalType":"address"},{"name":"newOwner","type":"address","indexed":true,"internalType":"address"}],"anonymous":false},{"type":"event","name":"SwapEnhanced","inputs":[{"name":"user","type":"address","indexed":true,"internalType":"address"},{"name":"tokenIn","type":"address","indexed":true,"internalType":"address"},{"name":"amountIn","type":"uint256","indexed":false,"internalType":"uint256"},{"name":"amountOut","type":"uint256","indexed":false,"internalType":"uint256"},{"name":"dynamicFee","type":"uint256","indexed":false,"internalType":"uint256"}],"anonymous":false},{"type":"event","name":"Transfer","inputs":[{"name":"from","type":"address","indexed":true,"internalType":"address"},{"name":"to","type":"address","indexed":true,"internalType":"address"},{"name":"value","type":"uint256","indexed":false,"internalType":"uint256"}],"anonymous":false},{"type":"error","name":"ERC20InsufficientAllowance","inputs":[{"name":"spender","type":"address","internalType":"address"},{"name":"allowance","type":"uint256","internalType":"uint256"},{"name":"needed","type":"uint256","internalType":"uint256"}]},{"type":"error","name":"ERC20InsufficientBalance","inputs":[{"name":"sender","type":"address","internalType":"address"},{"name":"balance","type":"uint256","internalType":"uint256"},{"name":"needed","type":"uint256","internalType":"uint256"}]},{"type":"error","name":"ERC20InvalidApprover","inputs":[{"name":"approver","type":"address","internalType":"address"}]},{"type":"error","name":"ERC20InvalidReceiver","inputs":[{"name":"receiver","type":"address","internalType":"address"}]},{"type":"error","name":"ERC20InvalidSender","inputs":[{"name":"sender","type":"address","internalType":"address"}]},{"type":"error","name":"ERC20InvalidSpender","inputs":[{"name":"spender","type":"address","internalType":"address"}]},{"type":"error","name":"OwnableInvalidOwner","inputs":[{"name":"owner","type":"address","internalType":"address"}]},{"type":"error","name":"OwnableUnauthorizedAccount","inputs":[{"name":"account","type":"address","internalType":"address"}]},{"type":"error","name":"ReentrancyGuardReentrantCall","inputs":[]}],"bytecode":{"object":"0x60e060405234610565576127078038038061001981610569565b92833981019060a081830312610565576100328161058e565b61003e6020830161058e565b9161004b6040820161058e565b60608201519091906001600160401b038111610565578561006d9183016105a2565b60808201519095906001600160401b0381116105655761008d92016105a2565b845190946001600160401b0382116104685760035490600182811c9216801561055b575b602083101461044a5781601f8493116104ed575b50602090601f8311600114610487575f9261047c575b50508160011b915f199060031b1c1916176003555b83516001600160401b03811161046857600454600181811c9116801561045e575b602082101461044a57601f81116103e7575b50602094601f8211600114610384579481929394955f92610379575b50508160011b915f199060031b1c1916176004555b600160055533156103665760068054336001600160a01b0319821681179092556040519491906001600160a01b03167f8be0079c531659141344cd1fd0a4f28419497f9722a3daafe3b4186f6b6457e05f80a3601e600955600a805460ff191660011790556064600d556001600160a01b0392831693921691838314610331575082151580610328575b156102f4576001600160a01b03169182156102af5760805260a05260c05242600c5560405161211390816105f48239608051818181610239015281816103f80152818161074601528181610880015281816109e601528181610bfc0152818161119f01526116d0015260a0518181816102aa015281816105120152818161066b015281816108fe01528181610a4f01528181610c65015281816113ed0152818161162b015261166f015260c051818181610cca01528181610ea801528181610f3f01528181611261015261132c0152f35b60405162461bcd60e51b815260206004820152601360248201527f496e76616c6964206d61746820656e67696e65000000000000000000000000006044820152606490fd5b60405162461bcd60e51b815260206004820152600c60248201526b5a65726f206164647265737360a01b6044820152606490fd5b508115156101de565b62461bcd60e51b815260206004820152601060248201526f4964656e746963616c20746f6b656e7360801b6044820152606490fd5b631e4fbdf760e01b5f525f60045260245ffd5b015190505f8061013f565b601f1982169560045f52805f20915f5b8881106103cf575083600195969798106103b7575b505050811b01600455610154565b01515f1960f88460031b161c191690555f80806103a9565b91926020600181928685015181550194019201610394565b60045f527f8a35acfbc15ff81a39ae7d344fd709f28e8600b4aa8c65c6b64bfe7fe36bd19b601f830160051c81019160208410610440575b601f0160051c01905b8181106104355750610123565b5f8155600101610428565b909150819061041f565b634e487b7160e01b5f52602260045260245ffd5b90607f1690610111565b634e487b7160e01b5f52604160045260245ffd5b015190505f806100db565b60035f9081528281209350601f198516905b8181106104d557509084600195949392106104bd575b505050811b016003556100f0565b01515f1960f88460031b161c191690555f80806104af565b92936020600181928786015181550195019301610499565b60035f529091507fc2575a0e9e593c00f959f8c92f12db2869c3395a3b0502d05e2516446f71f85b601f840160051c81019160208510610551575b90601f859493920160051c01905b81811061054357506100c5565b5f8155849350600101610536565b9091508190610528565b91607f16916100b1565b5f80fd5b6040519190601f01601f191682016001600160401b0381118382101761046857604052565b51906001600160a01b038216820361056557565b81601f82011215610565578051906001600160401b038211610468576105d1601f8301601f1916602001610569565b928284526020838301011161056557815f9260208093018386015e830101529056fe6080806040526004361015610012575f80fd5b5f3560e01c90816306fdde0314611918575080630902f1ac146118f4578063095ea7b31461187257806309bbf00b14611850578063140b9d841461183357806318160ddd1461181657806323b872dd14611737578063313ce5671461171c578063443cb4bc146116ff578063443ec74d146116bb5780635a76f25e1461169e5780635ee04d781461165a5780636ad5dcd71461117257806370a082311461113b578063715018a6146110e05780638da5cb5b146110b857806395d89b4114610fb4578063a6a11c6914610f08578063a9059cbb14610ed7578063b5ce502f14610e93578063b60ecfe014610e76578063ba9a7a5614610e5a578063bb871eb614610bb6578063cf2d217814610b99578063dd62ed3e14610b49578063e0ab07721461098f578063e39b0eb5146107ca578063f140a35a14610720578063f2fde38b1461069a578063f3e6ea8a146103c9578063fd4856bb146103ac5763fdc4bb571461017c575f80fd5b346103a85761018a36611a96565b92610196929192611ebf565b6101a1811515611d37565b6101e1600254936101d96101d06101c3876101be60075488611cba565b611ccd565b966101be60085487611cba565b94861015611d7c565b831015611dbf565b6101eb8133612059565b6101f783600754611c68565b60075561020682600854611c68565b60085560405163a9059cbb60e01b81526001600160a01b038516600482015260248101849052602081806044810103815f7f00000000000000000000000000000000000000000000000000000000000000006001600160a01b03165af1801561037e5761027a915f91610389575b50611c16565b60405163a9059cbb60e01b81526001600160a01b038516600482015260248101839052602081806044810103815f7f00000000000000000000000000000000000000000000000000000000000000006001600160a01b03165af1801561037e5760409561031361033b927f1dc8bb69df2b8e91fbdcbfcf93d951b3f0000f085a95fe3f7946d6161439245d945f9161034f575b50611c75565b86518681526020810186905260408101949094526001600160a01b0316929081906060820190565b0390a2600160055582519182526020820152f35b610371915060203d602011610377575b6103698183611ac4565b810190611bba565b5f61030d565b503d61035f565b6040513d5f823e3d90fd5b6103a2915060203d602011610377576103698183611ac4565b5f610274565b5f80fd5b346103a8575f3660031901126103a8576020600d54604051908152f35b346103a8576103d736611a26565b926103e3929192611ebf565b6103ee821515611ae6565b6001600160a01b037f00000000000000000000000000000000000000000000000000000000000000008116911680821490818015610668575b61043090611b32565b811561065d576007546008545b6009546127100361271081116106495761045a6104619188611cba565b9182611cba565b61271083029280840461271014901517156106495761048661048c9261049594611c5b565b90611ccd565b95861015611b6e565b6040516323b872dd60e01b81523360048201523060248201526044810185905290602090829060649082905f905af1801561037e576104db915f9161062a575b50611bd2565b1561059e575060405163a9059cbb60e01b81526001600160a01b03909316600484015260248301829052602083806044810103815f7f00000000000000000000000000000000000000000000000000000000000000006001600160a01b03165af190811561037e57610559610561926020955f916105815750611c75565b600754611c5b565b60075561057081600854611c68565b6008555b6001600555604051908152f35b6105989150863d8811610377576103698183611ac4565b8661030d565b60405163a9059cbb60e01b81526001600160a01b0394909416600485015260248401839052602090849060449082905f905af190811561037e576105ee6105f6926020955f9161060d5750611c16565b600854611c5b565b60085561060581600754611c68565b600755610574565b6106249150863d8811610377576103698183611ac4565b86610274565b610643915060203d602011610377576103698183611ac4565b876104d5565b634e487b7160e01b5f52601160045260245ffd5b60085460075461043d565b507f00000000000000000000000000000000000000000000000000000000000000006001600160a01b03168114610427565b346103a85760203660031901126103a8576106b36119fa565b6106bb611edf565b6001600160a01b0316801561070d57600680546001600160a01b0319811683179091556001600160a01b03167f8be0079c531659141344cd1fd0a4f28419497f9722a3daafe3b4186f6b6457e05f80a3005b631e4fbdf760e01b5f525f60045260245ffd5b346103a85760403660031901126103a857610739611a10565b6001600160a01b039081167f0000000000000000000000000000000000000000000000000000000000000000909116036107bf576007546008545b6009546127100361271081116106495761045a61079391600435611cba565b6127108302928084046127101490151715610649576104866107b792602094611c5b565b604051908152f35b600854600754610774565b346103a8576108326107db36611a96565b9390926107e6611ebf565b6107f1811515611d37565b61082c6002549461082461081b61080e886101be60075488611cba565b976101be60085487611cba565b95871015611d7c565b841015611dbf565b33612059565b61083e82600754611c68565b60075561084d81600854611c68565b60085560405163a9059cbb60e01b81526001600160a01b038416600482015260248101839052602081806044810103815f7f00000000000000000000000000000000000000000000000000000000000000006001600160a01b03165af1801561037e576108f9946108c884926020945f916109725750611c16565b60405163a9059cbb60e01b81526001600160a01b039091166004820152602481019190915293849081906044820190565b03815f7f00000000000000000000000000000000000000000000000000000000000000006001600160a01b03165af192831561037e57604093610942915f916109535750611c75565b600160055582519182526020820152f35b61096c915060203d602011610377576103698183611ac4565b8561030d565b6109899150853d8711610377576103698183611ac4565b88610274565b346103a8576109b26109a036611a64565b94936109ad939193611ebf565b611f06565b6040516323b872dd60e01b8152336004820152306024820152604481018390529092906020816064815f6001600160a01b037f0000000000000000000000000000000000000000000000000000000000000000165af1801561037e57610a1e915f91610b2a5750611c16565b6040516323b872dd60e01b8152336004820152306024820152604481018490526020816064815f6001600160a01b037f0000000000000000000000000000000000000000000000000000000000000000165af1801561037e57610a87915f916109535750611c75565b60025480610ac257610aa1610a9c8585611cba565b612013565b6103e7198101908111610649575063ec442f0560e01b5f525f60045260245ffd5b83610b188461055984610afc610af3610aec610ae36105709960209c611cba565b60075490611ccd565b9287611cba565b60085490611ccd565b80821015610b2357505b8096610b13821515611ceb565b611f97565b600755600854611c5b565b9050610b06565b610b43915060203d602011610377576103698183611ac4565b85610274565b346103a85760403660031901126103a857610b626119fa565b610b6a611a10565b6001600160a01b039182165f908152600160209081526040808320949093168252928352819020549051908152f35b346103a8575f3660031901126103a8576020600954604051908152f35b346103a857610bc76109a036611a64565b6040516323b872dd60e01b815233600482015230602482015260448101839052919290916020816064815f6001600160a01b037f0000000000000000000000000000000000000000000000000000000000000000165af1801561037e57610c34915f91610b2a5750611c16565b6040516323b872dd60e01b8152336004820152306024820152604481018390526020816064815f6001600160a01b037f0000000000000000000000000000000000000000000000000000000000000000165af1801561037e57610c9d915f916109535750611c75565b60025480610da5575050604051637ca4af8560e01b8152600481019290925260248201526020816044815f7f00000000000000000000000000000000000000000000000000000000000000006001600160a01b03165af190811561037e575f91610d73575b506103e8811115610d2e576103e7198101908111610649575063ec442f0560e01b5f525f60045260245ffd5b60405162461bcd60e51b815260206004820152601e60248201527f496e73756666696369656e7420696e697469616c206c697175696469747900006044820152606490fd5b90506020813d602011610d9d575b81610d8e60209383611ac4565b810103126103a8575181610d02565b3d9150610d81565b7f8d7ab6d7b9e5f49e4f32d26feb54db34daa8cb30ebd0de5ac41e61831bed94da60209382610de5610af3610dde610ae38a9788611cba565b9284611cba565b80821015610e5357505b93610dfb851515611ceb565b610e058582611f97565b610e1184600754611c5b565b600755610e2082600854611c5b565b6008556040805194855260208501929092529083018490526001600160a01b031691606090a26001600555604051908152f35b9050610def565b346103a8575f3660031901126103a85760206040516103e88152f35b346103a8575f3660031901126103a8576020600c54604051908152f35b346103a8575f3660031901126103a8576040517f00000000000000000000000000000000000000000000000000000000000000006001600160a01b03168152602090f35b346103a85760403660031901126103a857610efd610ef36119fa565b6024359033611e02565b602060405160018152f35b346103a85760403660031901126103a85760405163a6a11c6960e01b8152600480359082015260248035908201526020816044815f7f00000000000000000000000000000000000000000000000000000000000000006001600160a01b03165af1801561037e575f90610f81575b602090604051908152f35b506020813d602011610fac575b81610f9b60209383611ac4565b810103126103a85760209051610f76565b3d9150610f8e565b346103a8575f3660031901126103a8576040515f6004548060011c906001811680156110ae575b60208310811461109a578285529081156110765750600114611018575b6110148361100881850382611ac4565b604051918291826119d0565b0390f35b91905060045f527f8a35acfbc15ff81a39ae7d344fd709f28e8600b4aa8c65c6b64bfe7fe36bd19b915f905b80821061105c57509091508101602001611008610ff8565b919260018160209254838588010152019101909291611044565b60ff191660208086019190915291151560051b840190910191506110089050610ff8565b634e487b7160e01b5f52602260045260245ffd5b91607f1691610fdb565b346103a8575f3660031901126103a8576006546040516001600160a01b039091168152602090f35b346103a8575f3660031901126103a8576110f8611edf565b600680546001600160a01b031981169091555f906001600160a01b03167f8be0079c531659141344cd1fd0a4f28419497f9722a3daafe3b4186f6b6457e08280a3005b346103a85760203660031901126103a8576001600160a01b0361115c6119fa565b165f525f602052602060405f2054604051908152f35b346103a85761118036611a26565b909161118a611ebf565b611195811515611ae6565b6001600160a01b037f0000000000000000000000000000000000000000000000000000000000000000811694169182851490818015611628575b6111d890611b32565b811561161b5760075495600854955b600a5460ff161561161257600d54600b5461120760075460085490611c5b565b90604051926060840184811067ffffffffffffffff8211176115cc57604090815290845260208085019283528482019384529051635e78e6a560e01b8152935160048501529051602484015290516044830152816064815f7f00000000000000000000000000000000000000000000000000000000000000006001600160a01b03165af190811561037e575f916115e0575b507ffa47afdd18075c920714af4959c00b4efbc9e0f219ec97a064cc9a654eeea7e46020604051838152a1975b604051976080890189811067ffffffffffffffff8211176115cc576040908152878a526020808b019384528a820192835260608b018c815291516323180d3760e21b81529a5160048c0152925160248b0152905160448a0152516064890152876084815f7f00000000000000000000000000000000000000000000000000000000000000006001600160a01b03165af196871561037e575f97611596575b5061137190871015611b6e565b6040516323b872dd60e01b815233600482015230602482015260448101859052926020846064815f8a5af193841561037e5787946113b5915f916115775750611bd2565b156114f0575060405163a9059cbb60e01b81526001600160a01b0390911660048201526024810191909152602081806044810103815f7f00000000000000000000000000000000000000000000000000000000000000006001600160a01b03165af1801561037e5761142d915f916114d75750611c75565b61143981600754611c5b565b60075561144883600854611c68565b6008555b600c5493620151808501809511610649576114b37fdfbcbaa715508b94e9e81f1fd81a637a6e089ef6c11887264e5812a75db0ef429160209642115f146114c35783600b5542600c555b604080519485526020850187905284015233929081906060820190565b0390a36001600555604051908152f35b6114cf84600b54611c5b565b600b55611496565b610598915060203d602011610377576103698183611ac4565b60405163a9059cbb60e01b81526001600160a01b03929092166004830152602482019290925290602090829060449082905f905af1801561037e5761153b915f9161155e5750611c16565b61154781600854611c5b565b60085561155683600754611c68565b60075561144c565b610624915060203d602011610377576103698183611ac4565b611590915060203d602011610377576103698183611ac4565b8a6104d5565b9096506020813d6020116115c4575b816115b260209383611ac4565b810103126103a8575195611371611364565b3d91506115a5565b634e487b7160e01b5f52604160045260245ffd5b90506020813d60201161160a575b816115fb60209383611ac4565b810103126103a8575189611299565b3d91506115ee565b600954976112c6565b60085495600754956111e7565b507f00000000000000000000000000000000000000000000000000000000000000006001600160a01b031684146111cf565b346103a8575f3660031901126103a8576040517f00000000000000000000000000000000000000000000000000000000000000006001600160a01b03168152602090f35b346103a8575f3660031901126103a8576020600854604051908152f35b346103a8575f3660031901126103a8576040517f00000000000000000000000000000000000000000000000000000000000000006001600160a01b03168152602090f35b346103a8575f3660031901126103a8576020600754604051908152f35b346103a8575f3660031901126103a857602060405160128152f35b346103a85760603660031901126103a8576117506119fa565b611758611a10565b6001600160a01b0382165f818152600160209081526040808320338452909152902054909260443592915f198110611796575b50610efd9350611e02565b8381106117fb5784156117e85733156117d557610efd945f52600160205260405f2060018060a01b0333165f526020528360405f20910390558461178b565b634a1406b160e11b5f525f60045260245ffd5b63e602df0560e01b5f525f60045260245ffd5b8390637dc7a0d960e11b5f523360045260245260445260645ffd5b346103a8575f3660031901126103a8576020600254604051908152f35b346103a8575f3660031901126103a8576020600b54604051908152f35b346103a8575f3660031901126103a857602060ff600a54166040519015158152f35b346103a85760403660031901126103a85761188b6119fa565b6024359033156117e8576001600160a01b03169081156117d557335f52600160205260405f20825f526020528060405f20556040519081527f8c5be1e5ebec7d5bd14f71427d1e84f3dd0314c0f7b2291e5b200ac8c7c3b92560203392a3602060405160018152f35b346103a8575f3660031901126103a857604060075460085482519182526020820152f35b346103a8575f3660031901126103a8575f6003548060011c906001811680156119c6575b60208310811461109a578285529081156110765750600114611968576110148361100881850382611ac4565b91905060035f527fc2575a0e9e593c00f959f8c92f12db2869c3395a3b0502d05e2516446f71f85b915f905b8082106119ac57509091508101602001611008610ff8565b919260018160209254838588010152019101909291611994565b91607f169161193c565b602060409281835280519182918282860152018484015e5f828201840152601f01601f1916010190565b600435906001600160a01b03821682036103a857565b602435906001600160a01b03821682036103a857565b60809060031901126103a8576004356001600160a01b03811681036103a8579060243590604435906064356001600160a01b03811681036103a85790565b60a09060031901126103a857600435906024359060443590606435906084356001600160a01b03811681036103a85790565b60809060031901126103a8576004359060243590604435906064356001600160a01b03811681036103a85790565b90601f8019910116810190811067ffffffffffffffff8211176115cc57604052565b15611aed57565b60405162461bcd60e51b815260206004820152601960248201527f496e73756666696369656e7420696e70757420616d6f756e74000000000000006044820152606490fd5b15611b3957565b60405162461bcd60e51b815260206004820152600d60248201526c24b73b30b634b2103a37b5b2b760991b6044820152606490fd5b15611b7557565b60405162461bcd60e51b815260206004820152601a60248201527f496e73756666696369656e74206f757470757420616d6f756e740000000000006044820152606490fd5b908160209103126103a8575180151581036103a85790565b15611bd957565b60405162461bcd60e51b8152602060048201526015602482015274151bdad95b881d1c985b9cd9995c8819985a5b1959605a1b6044820152606490fd5b15611c1d57565b60405162461bcd60e51b81526020600482015260166024820152751513d2d1538c081d1c985b9cd9995c8819985a5b195960521b6044820152606490fd5b9190820180921161064957565b9190820391821161064957565b15611c7c57565b60405162461bcd60e51b81526020600482015260166024820152751513d2d1538c481d1c985b9cd9995c8819985a5b195960521b6044820152606490fd5b8181029291811591840414171561064957565b8115611cd7570490565b634e487b7160e01b5f52601260045260245ffd5b15611cf257565b60405162461bcd60e51b815260206004820152601d60248201527f496e73756666696369656e74206c6971756964697479206d696e7465640000006044820152606490fd5b15611d3e57565b60405162461bcd60e51b8152602060048201526016602482015275496e73756666696369656e74206c697175696469747960501b6044820152606490fd5b15611d8357565b60405162461bcd60e51b81526020600482015260146024820152730496e73756666696369656e7420616d6f756e74360641b6044820152606490fd5b15611dc657565b60405162461bcd60e51b8152602060048201526014602482015273496e73756666696369656e7420616d6f756e743160601b6044820152606490fd5b6001600160a01b0316908115611eac576001600160a01b0316918215611e9957815f525f60205260405f2054818110611e8057817fddf252ad1be2c89b69c2b068fc378daa952ba7f163c4a11628f55a4df523b3ef92602092855f525f84520360405f2055845f525f825260405f20818154019055604051908152a3565b8263391434e360e21b5f5260045260245260445260645ffd5b63ec442f0560e01b5f525f60045260245ffd5b634b637e8f60e11b5f525f60045260245ffd5b600260055414611ed0576002600555565b633ee5aeb560e01b5f5260045ffd5b6006546001600160a01b03163303611ef357565b63118cdaa760e01b5f523360045260245ffd5b9291909160075491821580611f8d575b15611f22575050509091565b60089391929354611f37856101be8389611cba565b94838611611f535750505050611f4f90821015611dbf565b9091565b83611f669496506101be92939550611cba565b928311611f7957611f4f90831015611d7c565b634e487b7160e01b5f52600160045260245ffd5b5060085415611f16565b6001600160a01b03811615611e99577fddf252ad1be2c89b69c2b068fc378daa952ba7f163c4a11628f55a4df523b3ef60205f92611fd785600254611c5b565b6002556001600160a01b03169384158414611ffe5780600254036002555b604051908152a3565b84845283825260408420818154019055611ff5565b90811561205457600182018083116106495760011c825b838210612035575050565b90925061204b836120468184611ccd565b611c5b565b60011c9061202a565b5f9150565b9091906001600160a01b03168015611eac57805f525f60205260405f20548381106120c3576020845f94957fddf252ad1be2c89b69c2b068fc378daa952ba7f163c4a11628f55a4df523b3ef938587528684520360408620558060025403600255604051908152a3565b915063391434e360e21b5f5260045260245260445260645ffdfea26469706673582212201825b0ce76987e18f9e0cf7ea014a06268bee28c950a570f186fd2a5e730b78264736f6c634300081e0033","linkReferences":{}},"methodIdentifiers":{"MATH_ENGINE()":"b5ce502f","MINIMUM_LIQUIDITY()":"ba9a7a56","TOKEN0()":"443ec74d","TOKEN1()":"5ee04d78","addLiquidity(uint256,uint256,uint256,uint256,address)":"e0ab0772","addLiquidityEnhanced(uint256,uint256,uint256,uint256,address)":"bb871eb6","allowance(address,address)":"dd62ed3e","approve(address,uint256)":"095ea7b3","balanceOf(address)":"70a08231","baseFeeRate()":"cf2d2178","calculateImpermanentLoss(uint256,uint256)":"a6a11c69","decimals()":"313ce567","dynamicFeesEnabled()":"09bbf00b","getAmountOut(uint256,address)":"f140a35a","getReserves()":"0902f1ac","lastVolumeUpdate()":"b60ecfe0","name()":"06fdde03","owner()":"8da5cb5b","priceVolatility()":"fd4856bb","removeLiquidity(uint256,uint256,uint256,address)":"e39b0eb5","removeLiquidityEnhanced(uint256,uint256,uint256,address)":"fdc4bb57","renounceOwnership()":"715018a6","reserve0()":"443cb4bc","reserve1()":"5a76f25e","swap(address,uint256,uint256,address)":"f3e6ea8a","swapEnhanced(address,uint256,uint256,address)":"6ad5dcd7","symbol()":"95d89b41","totalSupply()":"18160ddd","transfer(address,uint256)":"a9059cbb","transferFrom(address,address,uint256)":"23b872dd","transferOwnership(address)":"f2fde38b","volume24h()":"140b9d84"},"id":25}