{"abi":[{"type":"constructor","inputs":[{"name":"_token0","type":"address","internalType":"address"},{"name":"_token1","type":"address","internalType":"address"},{"name":"_name","type":"string","internalType":"string"},{"name":"_symbol","type":"string","internalType":"string"}],"stateMutability":"nonpayable"},{"type":"function","name":"FEE_RATE","inputs":[],"outputs":[{"name":"","type":"uint256","internalType":"uint256"}],"stateMutability":"view"},{"type":"function","name":"MINIMUM_LIQUIDITY","inputs":[],"outputs":[{"name":"","type":"uint256","internalType":"uint256"}],"stateMutability":"view"},{"type":"function","name":"TOKEN0","inputs":[],"outputs":[{"name":"","type":"address","internalType":"contract IERC20"}],"stateMutability":"view"},{"type":"function","name":"TOKEN1","inputs":[],"outputs":[{"name":"","type":"address","internalType":"contract IERC20"}],"stateMutability":"view"},{"type":"function","name":"addLiquidity","inputs":[{"name":"amount0Desired","type":"uint256","internalType":"uint256"},{"name":"amount1Desired","type":"uint256","internalType":"uint256"},{"name":"amount0Min","type":"uint256","internalType":"uint256"},{"name":"amount1Min","type":"uint256","internalType":"uint256"},{"name":"to","type":"address","internalType":"address"}],"outputs":[{"name":"liquidity","type":"uint256","internalType":"uint256"}],"stateMutability":"nonpayable"},{"type":"function","name":"allowance","inputs":[{"name":"owner","type":"address","internalType":"address"},{"name":"spender","type":"address","internalType":"address"}],"outputs":[{"name":"","type":"uint256","internalType":"uint256"}],"stateMutability":"view"},{"type":"function","name":"approve","inputs":[{"name":"spender","type":"address","internalType":"address"},{"name":"value","type":"uint256","internalType":"uint256"}],"outputs":[{"name":"","type":"bool","internalType":"bool"}],"stateMutability":"nonpayable"},{"type":"function","name":"balanceOf","inputs":[{"name":"account","type":"address","internalType":"address"}],"outputs":[{"name":"","type":"uint256","internalType":"uint256"}],"stateMutability":"view"},{"type":"function","name":"calculateSlippage","inputs":[{"name":"amountIn","type":"uint256","internalType":"uint256"},{"name":"reserveIn","type":"uint256","internalType":"uint256"},{"name":"reserveOut","type":"uint256","internalType":"uint256"}],"outputs":[{"name":"slippagePercent","type":"uint256","internalType":"uint256"}],"stateMutability":"pure"},{"type":"function","name":"decimals","inputs":[],"outputs":[{"name":"","type":"uint8","internalType":"uint8"}],"stateMutability":"view"},{"type":"function","name":"getGasMetrics","inputs":[],"outputs":[{"name":"swapGas","type":"uint256","internalType":"uint256"},{"name":"liquidityGas","type":"uint256","internalType":"uint256"}],"stateMutability":"view"},{"type":"function","name":"getReserves","inputs":[],"outputs":[{"name":"","type":"uint256","internalType":"uint256"},{"name":"","type":"uint256","internalType":"uint256"}],"stateMutability":"view"},{"type":"function","name":"lastLiquidityGasUsed","inputs":[],"outputs":[{"name":"","type":"uint256","internalType":"uint256"}],"stateMutability":"view"},{"type":"function","name":"lastSwapGasUsed","inputs":[],"outputs":[{"name":"","type":"uint256","internalType":"uint256"}],"stateMutability":"view"},{"type":"function","name":"name","inputs":[],"outputs":[{"name":"","type":"string","internalType":"string"}],"stateMutability":"view"},{"type":"function","name":"owner","inputs":[],"outputs":[{"name":"","type":"address","internalType":"address"}],"stateMutability":"view"},{"type":"function","name":"quote","inputs":[{"name":"amountA","type":"uint256","internalType":"uint256"},{"name":"reserveA","type":"uint256","internalType":"uint256"},{"name":"reserveB","type":"uint256","internalType":"uint256"}],"outputs":[{"name":"amountB","type":"uint256","internalType":"uint256"}],"stateMutability":"pure"},{"type":"function","name":"removeLiquidity","inputs":[{"name":"liquidity","type":"uint256","internalType":"uint256"},{"name":"amount0Min","type":"uint256","internalType":"uint256"},{"name":"amount1Min","type":"uint256","internalType":"uint256"},{"name":"to","type":"address","internalType":"address"}],"outputs":[{"name":"amount0","type":"uint256","internalType":"uint256"},{"name":"amount1","type":"uint256","internalType":"uint256"}],"stateMutability":"nonpayable"},{"type":"function","name":"renounceOwnership","inputs":[],"outputs":[],"stateMutability":"nonpayable"},{"type":"function","name":"reserve0","inputs":[],"outputs":[{"name":"","type":"uint256","internalType":"uint256"}],"stateMutability":"view"},{"type":"function","name":"reserve1","inputs":[],"outputs":[{"name":"","type":"uint256","internalType":"uint256"}],"stateMutability":"view"},{"type":"function","name":"swap","inputs":[{"name":"tokenIn","type":"address","internalType":"address"},{"name":"amountIn","type":"uint256","internalType":"uint256"},{"name":"amountOutMin","type":"uint256","internalType":"uint256"},{"name":"to","type":"address","internalType":"address"}],"outputs":[{"name":"amountOut","type":"uint256","internalType":"uint256"}],"stateMutability":"nonpayable"},{"type":"function","name":"symbol","inputs":[],"outputs":[{"name":"","type":"string","internalType":"string"}],"stateMutability":"view"},{"type":"function","name":"totalSupply","inputs":[],"outputs":[{"name":"","type":"uint256","internalType":"uint256"}],"stateMutability":"view"},{"type":"function","name":"transfer","inputs":[{"name":"to","type":"address","internalType":"address"},{"name":"value","type":"uint256","internalType":"uint256"}],"outputs":[{"name":"","type":"bool","internalType":"bool"}],"stateMutability":"nonpayable"},{"type":"function","name":"transferFrom","inputs":[{"name":"from","type":"address","internalType":"address"},{"name":"to","type":"address","internalType":"address"},{"name":"value","type":"uint256","internalType":"uint256"}],"outputs":[{"name":"","type":"bool","internalType":"bool"}],"stateMutability":"nonpayable"},{"type":"function","name":"transferOwnership","inputs":[{"name":"newOwner","type":"address","internalType":"address"}],"outputs":[],"stateMutability":"nonpayable"},{"type":"event","name":"Approval","inputs":[{"name":"owner","type":"address","indexed":true,"internalType":"address"},{"name":"spender","type":"address","indexed":true,"internalType":"address"},{"name":"value","type":"uint256","indexed":false,"internalType":"uint256"}],"anonymous":false},{"type":"event","name":"GasUsageRecorded","inputs":[{"name":"operation","type":"string","indexed":false,"internalType":"string"},{"name":"gasUsed","type":"uint256","indexed":false,"internalType":"uint256"}],"anonymous":false},{"type":"event","name":"LiquidityAdded","inputs":[{"name":"provider","type":"address","indexed":true,"internalType":"address"},{"name":"amount0","type":"uint256","indexed":false,"internalType":"uint256"},{"name":"amount1","type":"uint256","indexed":false,"internalType":"uint256"},{"name":"liquidity","type":"uint256","indexed":false,"internalType":"uint256"}],"anonymous":false},{"type":"event","name":"LiquidityRemoved","inputs":[{"name":"provider","type":"address","indexed":true,"internalType":"address"},{"name":"amount0","type":"uint256","indexed":false,"internalType":"uint256"},{"name":"amount1","type":"uint256","indexed":false,"internalType":"uint256"},{"name":"liquidity","type":"uint256","indexed":false,"internalType":"uint256"}],"anonymous":false},{"type":"event","name":"OwnershipTransferred","inputs":[{"name":"previousOwner","type":"address","indexed":true,"internalType":"address"},{"name":"newOwner","type":"address","indexed":true,"internalType":"address"}],"anonymous":false},{"type":"event","name":"Swap","inputs":[{"name":"user","type":"address","indexed":true,"internalType":"address"},{"name":"tokenIn","type":"address","indexed":true,"internalType":"address"},{"name":"tokenOut","type":"address","indexed":true,"internalType":"address"},{"name":"amountIn","type":"uint256","indexed":false,"internalType":"uint256"},{"name":"amountOut","type":"uint256","indexed":false,"internalType":"uint256"}],"anonymous":false},{"type":"event","name":"Transfer","inputs":[{"name":"from","type":"address","indexed":true,"internalType":"address"},{"name":"to","type":"address","indexed":true,"internalType":"address"},{"name":"value","type":"uint256","indexed":false,"internalType":"uint256"}],"anonymous":false},{"type":"error","name":"ERC20InsufficientAllowance","inputs":[{"name":"spender","type":"address","internalType":"address"},{"name":"allowance","type":"uint256","internalType":"uint256"},{"name":"needed","type":"uint256","internalType":"uint256"}]},{"type":"error","name":"ERC20InsufficientBalance","inputs":[{"name":"sender","type":"address","internalType":"address"},{"name":"balance","type":"uint256","internalType":"uint256"},{"name":"needed","type":"uint256","internalType":"uint256"}]},{"type":"error","name":"ERC20InvalidApprover","inputs":[{"name":"approver","type":"address","internalType":"address"}]},{"type":"error","name":"ERC20InvalidReceiver","inputs":[{"name":"receiver","type":"address","internalType":"address"}]},{"type":"error","name":"ERC20InvalidSender","inputs":[{"name":"sender","type":"address","internalType":"address"}]},{"type":"error","name":"ERC20InvalidSpender","inputs":[{"name":"spender","type":"address","internalType":"address"}]},{"type":"error","name":"OwnableInvalidOwner","inputs":[{"name":"owner","type":"address","internalType":"address"}]},{"type":"error","name":"OwnableUnauthorizedAccount","inputs":[{"name":"account","type":"address","internalType":"address"}]},{"type":"error","name":"ReentrancyGuardReentrantCall","inputs":[]}],"bytecode":{"object":"0x60c06040523461048157611d5f8038038061001981610485565b92833981019060808183031261048157610032816104aa565b61003e602083016104aa565b60408301519092906001600160401b03811161048157846100609183016104be565b60608201519094906001600160401b0381116104815761008092016104be565b83519092906001600160401b03811161039257600354600181811c91168015610477575b602082101461037457601f8111610414575b50602094601f82116001146103b1579481929394955f926103a6575b50508160011b915f199060031b1c1916176003555b82516001600160401b03811161039257600454600181811c91168015610388575b602082101461037457601f8111610311575b506020601f82116001146102ae57819293945f926102a3575b50508160011b915f199060031b1c1916176004555b600160055533156102905760068054336001600160a01b0319821681179092556040519291906001600160a01b03167f8be0079c531659141344cd1fd0a4f28419497f9722a3daafe3b4186f6b6457e05f80a36001600160a01b0390811692169081831461025b575080151580610252575b1561021e5760805260a05260405161184f908161051082396080518181816101910152818161076a015281816109ac015261103a015260a0518181816102b00152818161035c015281816105ac015281816107db01528181610a150152610fd90152f35b60405162461bcd60e51b815260206004820152600c60248201526b5a65726f206164647265737360a01b6044820152606490fd5b508115156101ba565b62461bcd60e51b815260206004820152601060248201526f4964656e746963616c20746f6b656e7360801b6044820152606490fd5b631e4fbdf760e01b5f525f60045260245ffd5b015190505f80610133565b601f1982169060045f52805f20915f5b8181106102f9575095836001959697106102e1575b505050811b01600455610148565b01515f1960f88460031b161c191690555f80806102d3565b9192602060018192868b0151815501940192016102be565b60045f527f8a35acfbc15ff81a39ae7d344fd709f28e8600b4aa8c65c6b64bfe7fe36bd19b601f830160051c8101916020841061036a575b601f0160051c01905b81811061035f575061011a565b5f8155600101610352565b9091508190610349565b634e487b7160e01b5f52602260045260245ffd5b90607f1690610108565b634e487b7160e01b5f52604160045260245ffd5b015190505f806100d2565b601f1982169560035f52805f20915f5b8881106103fc575083600195969798106103e4575b505050811b016003556100e7565b01515f1960f88460031b161c191690555f80806103d6565b919260206001819286850151815501940192016103c1565b60035f527fc2575a0e9e593c00f959f8c92f12db2869c3395a3b0502d05e2516446f71f85b601f830160051c8101916020841061046d575b601f0160051c01905b81811061046257506100b6565b5f8155600101610455565b909150819061044c565b90607f16906100a4565b5f80fd5b6040519190601f01601f191682016001600160401b0381118382101761039257604052565b51906001600160a01b038216820361048157565b81601f82011215610481578051906001600160401b038211610392576104ed601f8301601f1916602001610485565b928284526020838301011161048157815f9260208093018386015e830101529056fe6080806040526004361015610012575f80fd5b5f3560e01c90816306fdde031461127c575080630902f1ac14611258578063095ea7b3146111d657806318160ddd146111b957806323b872dd146110da5780632d11c58a146110be578063313ce567146110a357806340708ffd14611086578063443cb4bc14611069578063443ec74d146110255780635a76f25e146110085780635ee04d7814610fc457806370a0823114610f8d578063715018a614610f325780637cf185bc14610e895780638da5cb5b14610e6157806395d89b4114610d5d578063a9059cbb14610d2c578063ad615dec14610caa578063b81b592b14610c86578063ba9a7a5614610c6a578063d313365214610c4d578063dd62ed3e14610bfd578063e0ab077214610935578063e39b0eb514610665578063f2fde38b146105df5763f3e6ea8a14610145575f80fd5b346105db5760803660031901126105db5761015e61135e565b6024359061016a61138a565b916101736116b2565b5a918115908115610183816115a8565b6001600160a01b03918216927f000000000000000000000000000000000000000000000000000000000000000090921691838314918280156105a9575b15610574578215610565576007546101da600854926115a8565b80159182158061055c575b6101ee9061143b565b6103e58802938885046103e51417156105485761020b90846113f0565b916103e882029182046103e8141715610548576102319261022b91611403565b90611410565b946044358610610503576040516323b872dd60e01b8152336004820152306024820152604481018690526020816064815f895af19081156103fe575f916104e4575b50156104a75781156104095760405163a9059cbb60e01b81526001600160a01b03909716600488015260248701869052602087806044810103815f7f00000000000000000000000000000000000000000000000000000000000000006001600160a01b03165af19687156103fe5761032f5f5160206117fa5f395f51905f529261030960209a6080945f916103d1575b506114dd565b61031588600754611403565b6007556103248960085461142e565b6008555b5a9061142e565b80600955604051906040825260046040830152630737761760e41b606083015289820152a1156103cc57507f00000000000000000000000000000000000000000000000000000000000000006001600160a01b03165b604051928352838584015260018060a01b0316917fcd3829a3813dc3cdd188fd3d01dcf3268c16be2fdd2dd21d0665418816e4606260403392a46001600555604051908152f35b610385565b6103f191508c3d8e116103f7575b6103e981836113ba565b810190611480565b5f610303565b503d6103df565b6040513d5f823e3d90fd5b60405163a9059cbb60e01b81526001600160a01b03979097166004880152602487018690526020876044815f875af19687156103fe5761032f5f5160206117fa5f395f51905f529261046760209a6080945f9161048a575b50611498565b61047388600854611403565b6008556104828960075461142e565b600755610328565b6104a191508c3d8e116103f7576103e981836113ba565b5f610461565b60405162461bcd60e51b8152602060048201526015602482015274151bdad95b881d1c985b9cd9995c8819985a5b1959605a1b6044820152606490fd5b6104fd915060203d6020116103f7576103e981836113ba565b5f610273565b60405162461bcd60e51b815260206004820152601a60248201527f496e73756666696369656e74206f757470757420616d6f756e740000000000006044820152606490fd5b634e487b7160e01b5f52601160045260245ffd5b508015156101e5565b6008546101da600754926115a8565b60405162461bcd60e51b815260206004820152600d60248201526c24b73b30b634b2103a37b5b2b760991b6044820152606490fd5b507f00000000000000000000000000000000000000000000000000000000000000006001600160a01b031685146101c0565b5f80fd5b346105db5760203660031901126105db576105f861135e565b61060061168b565b6001600160a01b0316801561065257600680546001600160a01b0319811683179091556001600160a01b03167f8be0079c531659141344cd1fd0a4f28419497f9722a3daafe3b4186f6b6457e05f80a3005b631e4fbdf760e01b5f525f60045260245ffd5b346105db5760803660031901126105db5760043561068161138a565b9061068a6116b2565b5a9161069782151561143b565b600254916106c06106b3846106ae600754856113f0565b611410565b936106ae600854846113f0565b916106cf602435851015611522565b6106dd604435841015611565565b331561092257335f525f60205260405f2054828110610907578290335f525f6020520360405f205581600254036002555f6040518381527fddf252ad1be2c89b69c2b068fc378daa952ba7f163c4a11628f55a4df523b3ef60203392a360405163a9059cbb60e01b81526001600160a01b038216600482015260248101859052602081806044810103815f7f00000000000000000000000000000000000000000000000000000000000000006001600160a01b03165af180156103fe576107aa915f916108e85750611498565b60405163a9059cbb60e01b81526001600160a01b03821660048201526024810184905290602082806044810103815f7f00000000000000000000000000000000000000000000000000000000000000006001600160a01b03165af19081156103fe575f5160206117fa5f395f51905f5260806108636040996108576108b5967f1dc8bb69df2b8e91fbdcbfcf93d951b3f0000f085a95fe3f7946d6161439245d985f916108c957506114dd565b6103158a60075461142e565b8951908a8252600f8b8301526e72656d6f76654c697175696469747960881b60608301526020820152a186518681526020810186905260408101949094526001600160a01b0316929081906060820190565b0390a2600160055582519182526020820152f35b6108e2915060203d6020116103f7576103e981836113ba565b8d610303565b610901915060203d6020116103f7576103e981836113ba565b87610461565b905063391434e360e21b5f523360045260245260445260645ffd5b634b637e8f60e11b5f525f60045260245ffd5b346105db5760a03660031901126105db576084356001600160a01b0381168082036105db576109626116b2565b5a906109786064356044356024356004356116d2565b6040516323b872dd60e01b8152336004820152306024820152604481018390529193916020816064815f6001600160a01b037f0000000000000000000000000000000000000000000000000000000000000000165af180156103fe576109e4915f916108e85750611498565b6040516323b872dd60e01b8152336004820152306024820152604481018290526020816064815f6001600160a01b037f0000000000000000000000000000000000000000000000000000000000000000165af180156103fe57610a4d915f91610bde57506114dd565b60025480610b9b5750610a68610a6382866113f0565b611746565b6103e719810190811161054857933015610b4357610a886103e83061178c565b8415610b56578315610b43575f5160206117fa5f395f51905f526080610af07f64b83944e79c3ce8d4c297411de637c3e102d064677aac0c163976ebdcd6f50e95610ad58960209b61178c565b610ae185600754611403565b60075561032486600854611403565b80600a556040519060408252600c60408301526b6164644c697175696469747960a01b606083015289820152a1604080519182526020820192909252908101849052606090a26001600555604051908152f35b63ec442f0560e01b5f525f60045260245ffd5b60405162461bcd60e51b815260206004820152601d60248201527f496e73756666696369656e74206c6971756964697479206d696e7465640000006044820152606490fd5b610bc7610bbe610bb7610bae84896113f0565b60075490611410565b92846113f0565b60085490611410565b80821015610bd757505b93610a88565b9050610bd1565b610bf7915060203d6020116103f7576103e981836113ba565b87610303565b346105db5760403660031901126105db57610c1661135e565b610c1e611374565b6001600160a01b039182165f908152600160209081526040808320949093168252928352819020549051908152f35b346105db575f3660031901126105db576020600954604051908152f35b346105db575f3660031901126105db5760206040516103e88152f35b346105db575f3660031901126105db576040600954600a5482519182526020820152f35b346105db57610cb8366113a0565b908215610cf1576106ae610ce09260209483151580610ce8575b610cdb9061143b565b6113f0565b604051908152f35b50811515610cd2565b60405162461bcd60e51b8152602060048201526013602482015272125b9cdd59999a58da595b9d08185b5bdd5b9d606a1b6044820152606490fd5b346105db5760403660031901126105db57610d52610d4861135e565b60243590336115f4565b602060405160018152f35b346105db575f3660031901126105db576040515f6004548060011c90600181168015610e57575b602083108114610e4357828552908115610e1f5750600114610dc1575b610dbd83610db1818503826113ba565b60405191829182611334565b0390f35b91905060045f527f8a35acfbc15ff81a39ae7d344fd709f28e8600b4aa8c65c6b64bfe7fe36bd19b915f905b808210610e0557509091508101602001610db1610da1565b919260018160209254838588010152019101909291610ded565b60ff191660208086019190915291151560051b84019091019150610db19050610da1565b634e487b7160e01b5f52602260045260245ffd5b91607f1691610d84565b346105db575f3660031901126105db576006546040516001600160a01b039091168152602090f35b346105db57610e97366113a0565b905f91610eb1610ea782866113f0565b61022b8685611403565b916103e88202918083046103e8149015171561054857610ed091611410565b926103e88202918083046103e8149015171561054857610eef91611410565b808311610f02575b602082604051908152f35b610f0d91508261142e565b60648102908082046064149015171561054857602091610f2c91611410565b82610ef7565b346105db575f3660031901126105db57610f4a61168b565b600680546001600160a01b031981169091555f906001600160a01b03167f8be0079c531659141344cd1fd0a4f28419497f9722a3daafe3b4186f6b6457e08280a3005b346105db5760203660031901126105db576001600160a01b03610fae61135e565b165f525f602052602060405f2054604051908152f35b346105db575f3660031901126105db576040517f00000000000000000000000000000000000000000000000000000000000000006001600160a01b03168152602090f35b346105db575f3660031901126105db576020600854604051908152f35b346105db575f3660031901126105db576040517f00000000000000000000000000000000000000000000000000000000000000006001600160a01b03168152602090f35b346105db575f3660031901126105db576020600754604051908152f35b346105db575f3660031901126105db576020600a54604051908152f35b346105db575f3660031901126105db57602060405160128152f35b346105db575f3660031901126105db5760206040516103e58152f35b346105db5760603660031901126105db576110f361135e565b6110fb611374565b6001600160a01b0382165f818152600160209081526040808320338452909152902054909260443592915f198110611139575b50610d5293506115f4565b83811061119e57841561118b57331561117857610d52945f52600160205260405f2060018060a01b0333165f526020528360405f20910390558461112e565b634a1406b160e11b5f525f60045260245ffd5b63e602df0560e01b5f525f60045260245ffd5b8390637dc7a0d960e11b5f523360045260245260445260645ffd5b346105db575f3660031901126105db576020600254604051908152f35b346105db5760403660031901126105db576111ef61135e565b60243590331561118b576001600160a01b031690811561117857335f52600160205260405f20825f526020528060405f20556040519081527f8c5be1e5ebec7d5bd14f71427d1e84f3dd0314c0f7b2291e5b200ac8c7c3b92560203392a3602060405160018152f35b346105db575f3660031901126105db57604060075460085482519182526020820152f35b346105db575f3660031901126105db575f6003548060011c9060018116801561132a575b602083108114610e4357828552908115610e1f57506001146112cc57610dbd83610db1818503826113ba565b91905060035f527fc2575a0e9e593c00f959f8c92f12db2869c3395a3b0502d05e2516446f71f85b915f905b80821061131057509091508101602001610db1610da1565b9192600181602092548385880101520191019092916112f8565b91607f16916112a0565b602060409281835280519182918282860152018484015e5f828201840152601f01601f1916010190565b600435906001600160a01b03821682036105db57565b602435906001600160a01b03821682036105db57565b606435906001600160a01b03821682036105db57565b60609060031901126105db57600435906024359060443590565b90601f8019910116810190811067ffffffffffffffff8211176113dc57604052565b634e487b7160e01b5f52604160045260245ffd5b8181029291811591840414171561054857565b9190820180921161054857565b811561141a570490565b634e487b7160e01b5f52601260045260245ffd5b9190820391821161054857565b1561144257565b60405162461bcd60e51b8152602060048201526016602482015275496e73756666696369656e74206c697175696469747960501b6044820152606490fd5b908160209103126105db575180151581036105db5790565b1561149f57565b60405162461bcd60e51b81526020600482015260166024820152751513d2d1538c081d1c985b9cd9995c8819985a5b195960521b6044820152606490fd5b156114e457565b60405162461bcd60e51b81526020600482015260166024820152751513d2d1538c481d1c985b9cd9995c8819985a5b195960521b6044820152606490fd5b1561152957565b60405162461bcd60e51b81526020600482015260146024820152730496e73756666696369656e7420616d6f756e74360641b6044820152606490fd5b1561156c57565b60405162461bcd60e51b8152602060048201526014602482015273496e73756666696369656e7420616d6f756e743160601b6044820152606490fd5b156115af57565b60405162461bcd60e51b815260206004820152601960248201527f496e73756666696369656e7420696e70757420616d6f756e74000000000000006044820152606490fd5b6001600160a01b0316908115610922576001600160a01b0316918215610b4357815f525f60205260405f205481811061167257817fddf252ad1be2c89b69c2b068fc378daa952ba7f163c4a11628f55a4df523b3ef92602092855f525f84520360405f2055845f525f825260405f20818154019055604051908152a3565b8263391434e360e21b5f5260045260245260445260645ffd5b6006546001600160a01b0316330361169f57565b63118cdaa760e01b5f523360045260245ffd5b6002600554146116c3576002600555565b633ee5aeb560e01b5f5260045ffd5b919392906007549485158061173c575b611734576008546116f7876106ae83886113f0565b96838811611713575050505061170f90841015611565565b9190565b8361172b9498506106ae9293965061170f95506113f0565b91821015611522565b509350509190565b50600854156116e2565b801561178757600181018082116105485760011c815b82821061176857505090565b90915061177e826117798184611410565b611403565b60011c9061175c565b505f90565b7fddf252ad1be2c89b69c2b068fc378daa952ba7f163c4a11628f55a4df523b3ef60205f926117bd85600254611403565b6002556001600160a01b031693841584146117e45780600254036002555b604051908152a3565b848452838252604084208181540190556117db56fe0de365ba1bc0efce4e78c8caed9f4a436f013894c66dd3973fed3a0c58974dc6a26469706673582212203596bfecded5fefa816f397c76b84fbbcf9d1ff9060d84504d2cac8cc3bd6fc464736f6c634300081e0033","linkReferences":{}},"methodIdentifiers":{"FEE_RATE()":"2d11c58a","MINIMUM_LIQUIDITY()":"ba9a7a56","TOKEN0()":"443ec74d","TOKEN1()":"5ee04d78","addLiquidity(uint256,uint256,uint256,uint256,address)":"e0ab0772","allowance(address,address)":"dd62ed3e","approve(address,uint256)":"095ea7b3","balanceOf(address)":"70a08231","calculateSlippage(uint256,uint256,uint256)":"7cf185bc","decimals()":"313ce567","getGasMetrics()":"b81b592b","getReserves()":"0902f1ac","lastLiquidityGasUsed()":"40708ffd","lastSwapGasUsed()":"d3133652","name()":"06fdde03","owner()":"8da5cb5b","quote(uint256,uint256,uint256)":"ad615dec","removeLiquidity(uint256,uint256,uint256,address)":"e39b0eb5","renounceOwnership()":"715018a6","reserve0()":"443cb4bc","reserve1()":"5a76f25e","swap(address,uint256,uint256,address)":"f3e6ea8a","symbol()":"95d89b41","totalSupply()":"18160ddd","transfer(address,uint256)":"a9059cbb","transferFrom(address,address,uint256)":"23b872dd","transferOwnership(address)":"f2fde38b"},"id":23}